{
  "_format": "hh-sol-artifact-1",
  "contractName": "SkillSwap",
  "sourceName": "contracts/SkillSwap.sol",
  "abi": [
    {
      "inputs": [],
      "stateMutability": "nonpayable",
      "type": "constructor"
    },
    {
      "inputs": [
        {
          "internalType": "address",
          "name": "",
          "type": "address"
        },
        {
          "internalType": "address",
          "name": "",
          "type": "address"
        }
      ],
      "name": "Transaction",
      "outputs": [
        {
          "internalType": "enum SkillSwap.escrow",
          "name": "",
          "type": "uint8"
        }
      ],
      "stateMutability": "view",
      "type": "function"
    },
    {
      "inputs": [
        {
          "internalType": "uint256",
          "name": "",
          "type": "uint256"
        }
      ],
      "name": "buyerProfile",
      "outputs": [
        {
          "internalType": "address",
          "name": "account",
          "type": "address"
        },
        {
          "internalType": "uint256",
          "name": "id",
          "type": "uint256"
        },
        {
          "internalType": "string",
          "name": "uri",
          "type": "string"
        }
      ],
      "stateMutability": "view",
      "type": "function"
    },
    {
      "inputs": [
        {
          "internalType": "address",
          "name": "_seller",
          "type": "address"
        },
        {
          "internalType": "address",
          "name": "_buyer",
          "type": "address"
        }
      ],
      "name": "cancelOrder",
      "outputs": [],
      "stateMutability": "nonpayable",
      "type": "function"
    },
    {
      "inputs": [
        {
          "internalType": "address",
          "name": "_seller",
          "type": "address"
        },
        {
          "internalType": "string",
          "name": "_uri",
          "type": "string"
        },
        {
          "internalType": "uint256",
          "name": "_id",
          "type": "uint256"
        }
      ],
      "name": "confirmDelivery",
      "outputs": [],
      "stateMutability": "nonpayable",
      "type": "function"
    },
    {
      "inputs": [
        {
          "internalType": "address",
          "name": "_seller",
          "type": "address"
        },
        {
          "internalType": "address",
          "name": "_buyer",
          "type": "address"
        }
      ],
      "name": "deadlineMet",
      "outputs": [],
      "stateMutability": "nonpayable",
      "type": "function"
    },
    {
      "inputs": [
        {
          "internalType": "address",
          "name": "",
          "type": "address"
        },
        {
          "internalType": "address",
          "name": "",
          "type": "address"
        }
      ],
      "name": "deal",
      "outputs": [
        {
          "internalType": "uint256",
          "name": "amount",
          "type": "uint256"
        },
        {
          "internalType": "uint256",
          "name": "duration",
          "type": "uint256"
        },
        {
          "internalType": "address",
          "name": "seller",
          "type": "address"
        },
        {
          "internalType": "address",
          "name": "buyer",
          "type": "address"
        },
        {
          "internalType": "bool",
          "name": "inProgress",
          "type": "bool"
        }
      ],
      "stateMutability": "view",
      "type": "function"
    },
    {
      "inputs": [
        {
          "internalType": "address",
          "name": "",
          "type": "address"
        }
      ],
      "name": "isBuyer",
      "outputs": [
        {
          "internalType": "bool",
          "name": "",
          "type": "bool"
        }
      ],
      "stateMutability": "view",
      "type": "function"
    },
    {
      "inputs": [
        {
          "internalType": "address",
          "name": "",
          "type": "address"
        }
      ],
      "name": "isSeller",
      "outputs": [
        {
          "internalType": "bool",
          "name": "",
          "type": "bool"
        }
      ],
      "stateMutability": "view",
      "type": "function"
    },
    {
      "inputs": [],
      "name": "noOfBuyers",
      "outputs": [
        {
          "internalType": "uint256",
          "name": "",
          "type": "uint256"
        }
      ],
      "stateMutability": "view",
      "type": "function"
    },
    {
      "inputs": [],
      "name": "noOfSellers",
      "outputs": [
        {
          "internalType": "uint256",
          "name": "",
          "type": "uint256"
        }
      ],
      "stateMutability": "view",
      "type": "function"
    },
    {
      "inputs": [
        {
          "internalType": "address",
          "name": "_seller",
          "type": "address"
        },
        {
          "internalType": "uint256",
          "name": "_amount",
          "type": "uint256"
        },
        {
          "internalType": "uint256",
          "name": "_duration",
          "type": "uint256"
        }
      ],
      "name": "placeOrder",
      "outputs": [],
      "stateMutability": "payable",
      "type": "function"
    },
    {
      "inputs": [
        {
          "internalType": "uint256",
          "name": "",
          "type": "uint256"
        }
      ],
      "name": "sellerProfile",
      "outputs": [
        {
          "internalType": "address",
          "name": "account",
          "type": "address"
        },
        {
          "internalType": "uint256",
          "name": "id",
          "type": "uint256"
        },
        {
          "internalType": "string",
          "name": "uri",
          "type": "string"
        }
      ],
      "stateMutability": "view",
      "type": "function"
    },
    {
      "inputs": [
        {
          "internalType": "string",
          "name": "_uri",
          "type": "string"
        },
        {
          "internalType": "uint8",
          "name": "userId",
          "type": "uint8"
        }
      ],
      "name": "setProfile",
      "outputs": [],
      "stateMutability": "nonpayable",
      "type": "function"
    },
    {
      "inputs": [
        {
          "internalType": "address",
          "name": "_buyer",
          "type": "address"
        }
      ],
      "name": "toSeller",
      "outputs": [],
      "stateMutability": "payable",
      "type": "function"
    },
    {
      "inputs": [],
      "name": "totalCommision",
      "outputs": [
        {
          "internalType": "uint256",
          "name": "",
          "type": "uint256"
        }
      ],
      "stateMutability": "view",
      "type": "function"
    },
    {
      "inputs": [
        {
          "internalType": "string",
          "name": "_uri",
          "type": "string"
        },
        {
          "internalType": "uint256",
          "name": "_id",
          "type": "uint256"
        },
        {
          "internalType": "uint8",
          "name": "userId",
          "type": "uint8"
        }
      ],
      "name": "updateProfile",
      "outputs": [],
      "stateMutability": "nonpayable",
      "type": "function"
    },
    {
      "inputs": [],
      "name": "withDrawbalance",
      "outputs": [],
      "stateMutability": "nonpayable",
      "type": "function"
    }
  ],
  "bytecode": "0x608060405234801561001057600080fd5b50336000806101000a81548173ffffffffffffffffffffffffffffffffffffffff021916908373ffffffffffffffffffffffffffffffffffffffff16021790555061320c806100606000396000f3fe6080604052600436106100fe5760003560e01c806377e16afe11610095578063afb1fcc611610064578063afb1fcc614610331578063b320296a1461035c578063c6eff7a514610385578063ee95feaf1461039c578063f02c2587146103d9576100fe565b806377e16afe1461026e5780638822e8541461028a578063a7e30eac146102c9578063aa6e2b0f146102f2576100fe565b80635a22f014116100d15780635a22f014146101d7578063608e09c5146101f357806360e092c61461021c57806375cee0ec14610245576100fe565b80632a55feec146101035780632f0afacd1461014057806334c0bf1a1461018157806346b3b6ad146101ac575b600080fd5b34801561010f57600080fd5b5061012a600480360381019061012591906121d6565b610416565b604051610137919061221e565b60405180910390f35b34801561014c57600080fd5b5061016760048036038101906101629190612239565b610436565b6040516101789594939291906122a1565b60405180910390f35b34801561018d57600080fd5b506101966104c6565b6040516101a391906122f4565b60405180910390f35b3480156101b857600080fd5b506101c16104cc565b6040516101ce91906122f4565b60405180910390f35b6101f160048036038101906101ec91906121d6565b6104d2565b005b3480156101ff57600080fd5b5061021a60048036038101906102159190612239565b6108d1565b005b34801561022857600080fd5b50610243600480360381019061023e9190612239565b610ce2565b005b34801561025157600080fd5b5061026c600480360381019061026791906124ba565b611032565b005b61028860048036038101906102839190612529565b611351565b005b34801561029657600080fd5b506102b160048036038101906102ac919061257c565b61185a565b6040516102c093929190612628565b60405180910390f35b3480156102d557600080fd5b506102f060048036038101906102eb9190612666565b61192c565b005b3480156102fe57600080fd5b506103196004803603810190610314919061257c565b611b6e565b60405161032893929190612628565b60405180910390f35b34801561033d57600080fd5b50610346611c40565b60405161035391906122f4565b60405180910390f35b34801561036857600080fd5b50610383600480360381019061037e91906126d5565b611c46565b005b34801561039157600080fd5b5061039a612014565b005b3480156103a857600080fd5b506103c360048036038101906103be91906121d6565b612115565b6040516103d0919061221e565b60405180910390f35b3480156103e557600080fd5b5061040060048036038101906103fb9190612239565b612135565b60405161040d91906127a8565b60405180910390f35b60076020528060005260406000206000915054906101000a900460ff1681565b6008602052816000526040600020602052806000526040600020600091509150508060000154908060010154908060020160009054906101000a900473ffffffffffffffffffffffffffffffffffffffff16908060030160009054906101000a900473ffffffffffffffffffffffffffffffffffffffff16908060030160149054906101000a900460ff16905085565b60035481565b60025481565b600260038111156104e6576104e5612731565b5b600160003373ffffffffffffffffffffffffffffffffffffffff1673ffffffffffffffffffffffffffffffffffffffff16815260200190815260200160002060008373ffffffffffffffffffffffffffffffffffffffff1673ffffffffffffffffffffffffffffffffffffffff16815260200190815260200160002060009054906101000a900460ff16600381111561058257610581612731565b5b146105c2576040517f08c379a00000000000000000000000000000000000000000000000000000000081526004016105b99061280f565b60405180910390fd5b600a6001600860003373ffffffffffffffffffffffffffffffffffffffff1673ffffffffffffffffffffffffffffffffffffffff16815260200190815260200160002060008473ffffffffffffffffffffffffffffffffffffffff1673ffffffffffffffffffffffffffffffffffffffff16815260200190815260200160002060000154610650919061285e565b61065a91906128cf565b6009600082825461066b9190612900565b925050819055503373ffffffffffffffffffffffffffffffffffffffff166108fc600860003373ffffffffffffffffffffffffffffffffffffffff1673ffffffffffffffffffffffffffffffffffffffff16815260200190815260200160002060008473ffffffffffffffffffffffffffffffffffffffff1673ffffffffffffffffffffffffffffffffffffffff168152602001908152602001600020600001549081150290604051600060405180830381858888f19350505050158015610737573d6000803e3d6000fd5b506003600160003373ffffffffffffffffffffffffffffffffffffffff1673ffffffffffffffffffffffffffffffffffffffff16815260200190815260200160002060008373ffffffffffffffffffffffffffffffffffffffff1673ffffffffffffffffffffffffffffffffffffffff16815260200190815260200160002060006101000a81548160ff021916908360038111156107d8576107d7612731565b5b0217905550600860003373ffffffffffffffffffffffffffffffffffffffff1673ffffffffffffffffffffffffffffffffffffffff16815260200190815260200160002060008273ffffffffffffffffffffffffffffffffffffffff1673ffffffffffffffffffffffffffffffffffffffff16815260200190815260200160002060008082016000905560018201600090556002820160006101000a81549073ffffffffffffffffffffffffffffffffffffffff02191690556003820160006101000a81549073ffffffffffffffffffffffffffffffffffffffff02191690556003820160146101000a81549060ff0219169055505050565b600160038111156108e5576108e4612731565b5b600160008473ffffffffffffffffffffffffffffffffffffffff1673ffffffffffffffffffffffffffffffffffffffff16815260200190815260200160002060008373ffffffffffffffffffffffffffffffffffffffff1673ffffffffffffffffffffffffffffffffffffffff16815260200190815260200160002060009054906101000a900460ff16600381111561098157610980612731565b5b146109c1576040517f08c379a00000000000000000000000000000000000000000000000000000000081526004016109b890612980565b60405180910390fd5b42600860008473ffffffffffffffffffffffffffffffffffffffff1673ffffffffffffffffffffffffffffffffffffffff16815260200190815260200160002060008373ffffffffffffffffffffffffffffffffffffffff1673ffffffffffffffffffffffffffffffffffffffff1681526020019081526020016000206001015410610a82576040517f08c379a0000000000000000000000000000000000000000000000000000000008152600401610a79906129ec565b60405180910390fd5b8073ffffffffffffffffffffffffffffffffffffffff166108fc600860008573ffffffffffffffffffffffffffffffffffffffff1673ffffffffffffffffffffffffffffffffffffffff16815260200190815260200160002060008473ffffffffffffffffffffffffffffffffffffffff1673ffffffffffffffffffffffffffffffffffffffff168152602001908152602001600020600001549081150290604051600060405180830381858888f19350505050158015610b47573d6000803e3d6000fd5b506003600160008473ffffffffffffffffffffffffffffffffffffffff1673ffffffffffffffffffffffffffffffffffffffff16815260200190815260200160002060008373ffffffffffffffffffffffffffffffffffffffff1673ffffffffffffffffffffffffffffffffffffffff16815260200190815260200160002060006101000a81548160ff02191690836003811115610be857610be7612731565b5b0217905550600860008373ffffffffffffffffffffffffffffffffffffffff1673ffffffffffffffffffffffffffffffffffffffff16815260200190815260200160002060008273ffffffffffffffffffffffffffffffffffffffff1673ffffffffffffffffffffffffffffffffffffffff16815260200190815260200160002060008082016000905560018201600090556002820160006101000a81549073ffffffffffffffffffffffffffffffffffffffff02191690556003820160006101000a81549073ffffffffffffffffffffffffffffffffffffffff02191690556003820160146101000a81549060ff021916905550505050565b60016003811115610cf657610cf5612731565b5b600160008473ffffffffffffffffffffffffffffffffffffffff1673ffffffffffffffffffffffffffffffffffffffff16815260200190815260200160002060008373ffffffffffffffffffffffffffffffffffffffff1673ffffffffffffffffffffffffffffffffffffffff16815260200190815260200160002060009054906101000a900460ff166003811115610d9257610d91612731565b5b14610dd2576040517f08c379a0000000000000000000000000000000000000000000000000000000008152600401610dc990612980565b60405180910390fd5b8073ffffffffffffffffffffffffffffffffffffffff166108fc600860008573ffffffffffffffffffffffffffffffffffffffff1673ffffffffffffffffffffffffffffffffffffffff16815260200190815260200160002060008473ffffffffffffffffffffffffffffffffffffffff1673ffffffffffffffffffffffffffffffffffffffff168152602001908152602001600020600001549081150290604051600060405180830381858888f19350505050158015610e97573d6000803e3d6000fd5b506003600160008473ffffffffffffffffffffffffffffffffffffffff1673ffffffffffffffffffffffffffffffffffffffff16815260200190815260200160002060008373ffffffffffffffffffffffffffffffffffffffff1673ffffffffffffffffffffffffffffffffffffffff16815260200190815260200160002060006101000a81548160ff02191690836003811115610f3857610f37612731565b5b0217905550600860008373ffffffffffffffffffffffffffffffffffffffff1673ffffffffffffffffffffffffffffffffffffffff16815260200190815260200160002060008273ffffffffffffffffffffffffffffffffffffffff1673ffffffffffffffffffffffffffffffffffffffff16815260200190815260200160002060008082016000905560018201600090556002820160006101000a81549073ffffffffffffffffffffffffffffffffffffffff02191690556003820160006101000a81549073ffffffffffffffffffffffffffffffffffffffff02191690556003820160146101000a81549060ff021916905550505050565b60018160ff161115611079576040517f08c379a000000000000000000000000000000000000000000000000000000000815260040161107090612a58565b60405180910390fd5b60008160ff16036111e45760011515600560003373ffffffffffffffffffffffffffffffffffffffff1673ffffffffffffffffffffffffffffffffffffffff16815260200190815260200160002060009054906101000a900460ff16151514611117576040517f08c379a000000000000000000000000000000000000000000000000000000000815260040161110e90612ac4565b60405180910390fd5b3373ffffffffffffffffffffffffffffffffffffffff166004600084815260200190815260200160002060000160009054906101000a900473ffffffffffffffffffffffffffffffffffffffff1673ffffffffffffffffffffffffffffffffffffffff16146111bb576040517f08c379a00000000000000000000000000000000000000000000000000000000081526004016111b290612b30565b60405180910390fd5b826004600084815260200190815260200160002060020190816111de9190612d5c565b5061134c565b60018160ff160361134b5760011515600760003373ffffffffffffffffffffffffffffffffffffffff1673ffffffffffffffffffffffffffffffffffffffff16815260200190815260200160002060009054906101000a900460ff16151514611282576040517f08c379a000000000000000000000000000000000000000000000000000000000815260040161127990612e7a565b60405180910390fd5b3373ffffffffffffffffffffffffffffffffffffffff166006600084815260200190815260200160002060000160009054906101000a900473ffffffffffffffffffffffffffffffffffffffff1673ffffffffffffffffffffffffffffffffffffffff1614611326576040517f08c379a000000000000000000000000000000000000000000000000000000000815260040161131d90612b30565b60405180910390fd5b826006600084815260200190815260200160002060020190816113499190612d5c565b505b5b505050565b600560008473ffffffffffffffffffffffffffffffffffffffff1673ffffffffffffffffffffffffffffffffffffffff16815260200190815260200160002060009054906101000a900460ff166113dd576040517f08c379a00000000000000000000000000000000000000000000000000000000081526004016113d490612ac4565b60405180910390fd5b600760003373ffffffffffffffffffffffffffffffffffffffff1673ffffffffffffffffffffffffffffffffffffffff16815260200190815260200160002060009054906101000a900460ff16611469576040517f08c379a000000000000000000000000000000000000000000000000000000000815260040161146090612e7a565b60405180910390fd5b60001515600860008573ffffffffffffffffffffffffffffffffffffffff1673ffffffffffffffffffffffffffffffffffffffff16815260200190815260200160002060003373ffffffffffffffffffffffffffffffffffffffff1673ffffffffffffffffffffffffffffffffffffffff16815260200190815260200160002060030160149054906101000a900460ff1615151461153c576040517f08c379a000000000000000000000000000000000000000000000000000000000815260040161153390612ee6565b60405180910390fd5b3373ffffffffffffffffffffffffffffffffffffffff168373ffffffffffffffffffffffffffffffffffffffff16036115aa576040517f08c379a00000000000000000000000000000000000000000000000000000000081526004016115a190612f52565b60405180910390fd5b600a6001836115b9919061285e565b6115c391906128cf565b826115ce9190612900565b341461160f576040517f08c379a000000000000000000000000000000000000000000000000000000000815260040161160690612fbe565b60405180910390fd5b6040518060a00160405280838152602001428361162c9190612900565b81526020018473ffffffffffffffffffffffffffffffffffffffff1681526020013373ffffffffffffffffffffffffffffffffffffffff16815260200160011515815250600860008573ffffffffffffffffffffffffffffffffffffffff1673ffffffffffffffffffffffffffffffffffffffff16815260200190815260200160002060003373ffffffffffffffffffffffffffffffffffffffff1673ffffffffffffffffffffffffffffffffffffffff168152602001908152602001600020600082015181600001556020820151816001015560408201518160020160006101000a81548173ffffffffffffffffffffffffffffffffffffffff021916908373ffffffffffffffffffffffffffffffffffffffff16021790555060608201518160030160006101000a81548173ffffffffffffffffffffffffffffffffffffffff021916908373ffffffffffffffffffffffffffffffffffffffff16021790555060808201518160030160146101000a81548160ff02191690831515021790555090505060018060008573ffffffffffffffffffffffffffffffffffffffff1673ffffffffffffffffffffffffffffffffffffffff16815260200190815260200160002060003373ffffffffffffffffffffffffffffffffffffffff1673ffffffffffffffffffffffffffffffffffffffff16815260200190815260200160002060006101000a81548160ff021916908360038111156118505761184f612731565b5b0217905550505050565b60066020528060005260406000206000915090508060000160009054906101000a900473ffffffffffffffffffffffffffffffffffffffff16908060010154908060020180546118a990612b7f565b80601f01602080910402602001604051908101604052809291908181526020018280546118d590612b7f565b80156119225780601f106118f757610100808354040283529160200191611922565b820191906000526020600020905b81548152906001019060200180831161190557829003601f168201915b5050505050905083565b600160038111156119405761193f612731565b5b600160008573ffffffffffffffffffffffffffffffffffffffff1673ffffffffffffffffffffffffffffffffffffffff16815260200190815260200160002060003373ffffffffffffffffffffffffffffffffffffffff1673ffffffffffffffffffffffffffffffffffffffff16815260200190815260200160002060009054906101000a900460ff1660038111156119dc576119db612731565b5b14611a1c576040517f08c379a0000000000000000000000000000000000000000000000000000000008152600401611a139061302a565b60405180910390fd5b42600860008573ffffffffffffffffffffffffffffffffffffffff1673ffffffffffffffffffffffffffffffffffffffff16815260200190815260200160002060003373ffffffffffffffffffffffffffffffffffffffff1673ffffffffffffffffffffffffffffffffffffffff1681526020019081526020016000206001018190555081600460008381526020019081526020016000206002019081611ac39190612d5c565b506002600160008573ffffffffffffffffffffffffffffffffffffffff1673ffffffffffffffffffffffffffffffffffffffff16815260200190815260200160002060003373ffffffffffffffffffffffffffffffffffffffff1673ffffffffffffffffffffffffffffffffffffffff16815260200190815260200160002060006101000a81548160ff02191690836003811115611b6457611b63612731565b5b0217905550505050565b60046020528060005260406000206000915090508060000160009054906101000a900473ffffffffffffffffffffffffffffffffffffffff1690806001015490806002018054611bbd90612b7f565b80601f0160208091040260200160405190810160405280929190818152602001828054611be990612b7f565b8015611c365780601f10611c0b57610100808354040283529160200191611c36565b820191906000526020600020905b815481529060010190602001808311611c1957829003601f168201915b5050505050905083565b60095481565b60001515600560003373ffffffffffffffffffffffffffffffffffffffff1673ffffffffffffffffffffffffffffffffffffffff16815260200190815260200160002060009054906101000a900460ff16151514611cd9576040517f08c379a0000000000000000000000000000000000000000000000000000000008152600401611cd090613096565b60405180910390fd5b60001515600760003373ffffffffffffffffffffffffffffffffffffffff1673ffffffffffffffffffffffffffffffffffffffff16815260200190815260200160002060009054906101000a900460ff16151514611d6c576040517f08c379a0000000000000000000000000000000000000000000000000000000008152600401611d6390613102565b60405180910390fd5b60018160ff161115611db3576040517f08c379a0000000000000000000000000000000000000000000000000000000008152600401611daa90612a58565b60405180910390fd5b60008160ff1603611ee357600260008154611dcd90613122565b9190508190555060405180606001604052803373ffffffffffffffffffffffffffffffffffffffff16815260200160025481526020018381525060046000600254815260200190815260200160002060008201518160000160006101000a81548173ffffffffffffffffffffffffffffffffffffffff021916908373ffffffffffffffffffffffffffffffffffffffff160217905550602082015181600101556040820151816002019081611e829190612d5c565b509050506001600560003373ffffffffffffffffffffffffffffffffffffffff1673ffffffffffffffffffffffffffffffffffffffff16815260200190815260200160002060006101000a81548160ff021916908315150217905550612010565b60018160ff160361200f57600360008154611efd90613122565b9190508190555060405180606001604052803373ffffffffffffffffffffffffffffffffffffffff16815260200160035481526020018381525060066000600354815260200190815260200160002060008201518160000160006101000a81548173ffffffffffffffffffffffffffffffffffffffff021916908373ffffffffffffffffffffffffffffffffffffffff160217905550602082015181600101556040820151816002019081611fb29190612d5c565b509050506001600760003373ffffffffffffffffffffffffffffffffffffffff1673ffffffffffffffffffffffffffffffffffffffff16815260200190815260200160002060006101000a81548160ff0219169083151502179055505b5b5050565b60008054906101000a900473ffffffffffffffffffffffffffffffffffffffff1673ffffffffffffffffffffffffffffffffffffffff163373ffffffffffffffffffffffffffffffffffffffff16146120a2576040517f08c379a0000000000000000000000000000000000000000000000000000000008152600401612099906131b6565b60405180910390fd5b60008054906101000a900473ffffffffffffffffffffffffffffffffffffffff1673ffffffffffffffffffffffffffffffffffffffff166108fc6009549081150290604051600060405180830381858888f1935050505015801561210a573d6000803e3d6000fd5b506000600981905550565b60056020528060005260406000206000915054906101000a900460ff1681565b60016020528160005260406000206020528060005260406000206000915091509054906101000a900460ff1681565b6000604051905090565b600080fd5b600080fd5b600073ffffffffffffffffffffffffffffffffffffffff82169050919050565b60006121a382612178565b9050919050565b6121b381612198565b81146121be57600080fd5b50565b6000813590506121d0816121aa565b92915050565b6000602082840312156121ec576121eb61216e565b5b60006121fa848285016121c1565b91505092915050565b60008115159050919050565b61221881612203565b82525050565b6000602082019050612233600083018461220f565b92915050565b600080604083850312156122505761224f61216e565b5b600061225e858286016121c1565b925050602061226f858286016121c1565b9150509250929050565b6000819050919050565b61228c81612279565b82525050565b61229b81612198565b82525050565b600060a0820190506122b66000830188612283565b6122c36020830187612283565b6122d06040830186612292565b6122dd6060830185612292565b6122ea608083018461220f565b9695505050505050565b60006020820190506123096000830184612283565b92915050565b600080fd5b600080fd5b6000601f19601f8301169050919050565b7f4e487b7100000000000000000000000000000000000000000000000000000000600052604160045260246000fd5b61236282612319565b810181811067ffffffffffffffff821117156123815761238061232a565b5b80604052505050565b6000612394612164565b90506123a08282612359565b919050565b600067ffffffffffffffff8211156123c0576123bf61232a565b5b6123c982612319565b9050602081019050919050565b82818337600083830152505050565b60006123f86123f3846123a5565b61238a565b90508281526020810184848401111561241457612413612314565b5b61241f8482856123d6565b509392505050565b600082601f83011261243c5761243b61230f565b5b813561244c8482602086016123e5565b91505092915050565b61245e81612279565b811461246957600080fd5b50565b60008135905061247b81612455565b92915050565b600060ff82169050919050565b61249781612481565b81146124a257600080fd5b50565b6000813590506124b48161248e565b92915050565b6000806000606084860312156124d3576124d261216e565b5b600084013567ffffffffffffffff8111156124f1576124f0612173565b5b6124fd86828701612427565b935050602061250e8682870161246c565b925050604061251f868287016124a5565b9150509250925092565b6000806000606084860312156125425761254161216e565b5b6000612550868287016121c1565b93505060206125618682870161246c565b92505060406125728682870161246c565b9150509250925092565b6000602082840312156125925761259161216e565b5b60006125a08482850161246c565b91505092915050565b600081519050919050565b600082825260208201905092915050565b60005b838110156125e35780820151818401526020810190506125c8565b60008484015250505050565b60006125fa826125a9565b61260481856125b4565b93506126148185602086016125c5565b61261d81612319565b840191505092915050565b600060608201905061263d6000830186612292565b61264a6020830185612283565b818103604083015261265c81846125ef565b9050949350505050565b60008060006060848603121561267f5761267e61216e565b5b600061268d868287016121c1565b935050602084013567ffffffffffffffff8111156126ae576126ad612173565b5b6126ba86828701612427565b92505060406126cb8682870161246c565b9150509250925092565b600080604083850312156126ec576126eb61216e565b5b600083013567ffffffffffffffff81111561270a57612709612173565b5b61271685828601612427565b9250506020612727858286016124a5565b9150509250929050565b7f4e487b7100000000000000000000000000000000000000000000000000000000600052602160045260246000fd5b6004811061277157612770612731565b5b50565b600081905061278282612760565b919050565b600061279282612774565b9050919050565b6127a281612787565b82525050565b60006020820190506127bd6000830184612799565b92915050565b7f6f72646572206e6f74207965742064656c697665726564000000000000000000600082015250565b60006127f96017836125b4565b9150612804826127c3565b602082019050919050565b60006020820190508181036000830152612828816127ec565b9050919050565b7f4e487b7100000000000000000000000000000000000000000000000000000000600052601160045260246000fd5b600061286982612279565b915061287483612279565b925082820261288281612279565b915082820484148315176128995761289861282f565b5b5092915050565b7f4e487b7100000000000000000000000000000000000000000000000000000000600052601260045260246000fd5b60006128da82612279565b91506128e583612279565b9250826128f5576128f46128a0565b5b828204905092915050565b600061290b82612279565b915061291683612279565b925082820190508082111561292e5761292d61282f565b5b92915050565b7f6f7264657220616c726561647920696e2070726f636573730000000000000000600082015250565b600061296a6018836125b4565b915061297582612934565b602082019050919050565b600060208201905081810360008301526129998161295d565b9050919050565b7f646561646c696e65206e6f74206d657420796574210000000000000000000000600082015250565b60006129d66015836125b4565b91506129e1826129a0565b602082019050919050565b60006020820190508181036000830152612a05816129c9565b9050919050565b7f696e76616c69642063686f696365000000000000000000000000000000000000600082015250565b6000612a42600e836125b4565b9150612a4d82612a0c565b602082019050919050565b60006020820190508181036000830152612a7181612a35565b9050919050565b7f6e6f7420612073656c6c65720000000000000000000000000000000000000000600082015250565b6000612aae600c836125b4565b9150612ab982612a78565b602082019050919050565b60006020820190508181036000830152612add81612aa1565b9050919050565b7f4e4f5420796f75722070726f66696c6500000000000000000000000000000000600082015250565b6000612b1a6010836125b4565b9150612b2582612ae4565b602082019050919050565b60006020820190508181036000830152612b4981612b0d565b9050919050565b7f4e487b7100000000000000000000000000000000000000000000000000000000600052602260045260246000fd5b60006002820490506001821680612b9757607f821691505b602082108103612baa57612ba9612b50565b5b50919050565b60008190508160005260206000209050919050565b60006020601f8301049050919050565b600082821b905092915050565b600060088302612c127fffffffffffffffffffffffffffffffffffffffffffffffffffffffffffffffff82612bd5565b612c1c8683612bd5565b95508019841693508086168417925050509392505050565b6000819050919050565b6000612c59612c54612c4f84612279565b612c34565b612279565b9050919050565b6000819050919050565b612c7383612c3e565b612c87612c7f82612c60565b848454612be2565b825550505050565b600090565b612c9c612c8f565b612ca7818484612c6a565b505050565b5b81811015612ccb57612cc0600082612c94565b600181019050612cad565b5050565b601f821115612d1057612ce181612bb0565b612cea84612bc5565b81016020851015612cf9578190505b612d0d612d0585612bc5565b830182612cac565b50505b505050565b600082821c905092915050565b6000612d3360001984600802612d15565b1980831691505092915050565b6000612d4c8383612d22565b9150826002028217905092915050565b612d65826125a9565b67ffffffffffffffff811115612d7e57612d7d61232a565b5b612d888254612b7f565b612d93828285612ccf565b600060209050601f831160018114612dc65760008415612db4578287015190505b612dbe8582612d40565b865550612e26565b601f198416612dd486612bb0565b60005b82811015612dfc57848901518255600182019150602085019450602081019050612dd7565b86831015612e195784890151612e15601f891682612d22565b8355505b6001600288020188555050505b505050505050565b7f6e6f742061206275796572000000000000000000000000000000000000000000600082015250565b6000612e64600b836125b4565b9150612e6f82612e2e565b602082019050919050565b60006020820190508181036000830152612e9381612e57565b9050919050565b7f696e2070726f6365737300000000000000000000000000000000000000000000600082015250565b6000612ed0600a836125b4565b9150612edb82612e9a565b602082019050919050565b60006020820190508181036000830152612eff81612ec3565b9050919050565b7f43616e6e6f74206f7264657220796f757273656c660000000000000000000000600082015250565b6000612f3c6015836125b4565b9150612f4782612f06565b602082019050919050565b60006020820190508181036000830152612f6b81612f2f565b9050919050565b7f7365742074686520726967687420616d6f756e74000000000000000000000000600082015250565b6000612fa86014836125b4565b9150612fb382612f72565b602082019050919050565b60006020820190508181036000830152612fd781612f9b565b9050919050565b7f6f72646572206e6f742079657420706c61636564000000000000000000000000600082015250565b60006130146014836125b4565b915061301f82612fde565b602082019050919050565b6000602082019050818103600083015261304381613007565b9050919050565b7f416c726561647920612073656c6c657200000000000000000000000000000000600082015250565b60006130806010836125b4565b915061308b8261304a565b602082019050919050565b600060208201905081810360008301526130af81613073565b9050919050565b7f416c726561647920612062757965720000000000000000000000000000000000600082015250565b60006130ec600f836125b4565b91506130f7826130b6565b602082019050919050565b6000602082019050818103600083015261311b816130df565b9050919050565b600061312d82612279565b91507fffffffffffffffffffffffffffffffffffffffffffffffffffffffffffffffff820361315f5761315e61282f565b5b600182019050919050565b7f4e6f7420746865206f776e657200000000000000000000000000000000000000600082015250565b60006131a0600d836125b4565b91506131ab8261316a565b602082019050919050565b600060208201905081810360008301526131cf81613193565b905091905056fea26469706673582212201e85eef509995f35e8757f35c5ec6a8e56d7809cd3d484e01689166d5ba65eb464736f6c63430008110033",
  "linkReferences": {},
  "deployedLinkReferences": {}
}